{
  "_format": "hh-sol-artifact-1",
  "contractName": "ptgGreenrock",
  "sourceName": "contracts/ptgGreenrock.sol",
  "abi": [
    {
      "inputs": [
        {
          "internalType": "address",
          "name": "initialOwner",
          "type": "address"
        }
      ],
      "stateMutability": "nonpayable",
      "type": "constructor"
    },
    {
      "inputs": [],
      "name": "ECDSAInvalidSignature",
      "type": "error"
    },
    {
      "inputs": [
        {
          "internalType": "uint256",
          "name": "length",
          "type": "uint256"
        }
      ],
      "name": "ECDSAInvalidSignatureLength",
      "type": "error"
    },
    {
      "inputs": [
        {
          "internalType": "bytes32",
          "name": "s",
          "type": "bytes32"
        }
      ],
      "name": "ECDSAInvalidSignatureS",
      "type": "error"
    },
    {
      "inputs": [
        {
          "internalType": "address",
          "name": "spender",
          "type": "address"
        },
        {
          "internalType": "uint256",
          "name": "allowance",
          "type": "uint256"
        },
        {
          "internalType": "uint256",
          "name": "needed",
          "type": "uint256"
        }
      ],
      "name": "ERC20InsufficientAllowance",
      "type": "error"
    },
    {
      "inputs": [
        {
          "internalType": "address",
          "name": "sender",
          "type": "address"
        },
        {
          "internalType": "uint256",
          "name": "balance",
          "type": "uint256"
        },
        {
          "internalType": "uint256",
          "name": "needed",
          "type": "uint256"
        }
      ],
      "name": "ERC20InsufficientBalance",
      "type": "error"
    },
    {
      "inputs": [
        {
          "internalType": "address",
          "name": "approver",
          "type": "address"
        }
      ],
      "name": "ERC20InvalidApprover",
      "type": "error"
    },
    {
      "inputs": [
        {
          "internalType": "address",
          "name": "receiver",
          "type": "address"
        }
      ],
      "name": "ERC20InvalidReceiver",
      "type": "error"
    },
    {
      "inputs": [
        {
          "internalType": "address",
          "name": "sender",
          "type": "address"
        }
      ],
      "name": "ERC20InvalidSender",
      "type": "error"
    },
    {
      "inputs": [
        {
          "internalType": "address",
          "name": "spender",
          "type": "address"
        }
      ],
      "name": "ERC20InvalidSpender",
      "type": "error"
    },
    {
      "inputs": [
        {
          "internalType": "uint256",
          "name": "deadline",
          "type": "uint256"
        }
      ],
      "name": "ERC2612ExpiredSignature",
      "type": "error"
    },
    {
      "inputs": [
        {
          "internalType": "address",
          "name": "signer",
          "type": "address"
        },
        {
          "internalType": "address",
          "name": "owner",
          "type": "address"
        }
      ],
      "name": "ERC2612InvalidSigner",
      "type": "error"
    },
    {
      "inputs": [],
      "name": "EnforcedPause",
      "type": "error"
    },
    {
      "inputs": [],
      "name": "ExpectedPause",
      "type": "error"
    },
    {
      "inputs": [
        {
          "internalType": "address",
          "name": "account",
          "type": "address"
        },
        {
          "internalType": "uint256",
          "name": "currentNonce",
          "type": "uint256"
        }
      ],
      "name": "InvalidAccountNonce",
      "type": "error"
    },
    {
      "inputs": [],
      "name": "InvalidShortString",
      "type": "error"
    },
    {
      "inputs": [
        {
          "internalType": "address",
          "name": "owner",
          "type": "address"
        }
      ],
      "name": "OwnableInvalidOwner",
      "type": "error"
    },
    {
      "inputs": [
        {
          "internalType": "address",
          "name": "account",
          "type": "address"
        }
      ],
      "name": "OwnableUnauthorizedAccount",
      "type": "error"
    },
    {
      "inputs": [
        {
          "internalType": "string",
          "name": "str",
          "type": "string"
        }
      ],
      "name": "StringTooLong",
      "type": "error"
    },
    {
      "anonymous": false,
      "inputs": [
        {
          "indexed": true,
          "internalType": "address",
          "name": "owner",
          "type": "address"
        },
        {
          "indexed": true,
          "internalType": "address",
          "name": "spender",
          "type": "address"
        },
        {
          "indexed": false,
          "internalType": "uint256",
          "name": "value",
          "type": "uint256"
        }
      ],
      "name": "Approval",
      "type": "event"
    },
    {
      "anonymous": false,
      "inputs": [],
      "name": "EIP712DomainChanged",
      "type": "event"
    },
    {
      "anonymous": false,
      "inputs": [
        {
          "indexed": true,
          "internalType": "address",
          "name": "previousOwner",
          "type": "address"
        },
        {
          "indexed": true,
          "internalType": "address",
          "name": "newOwner",
          "type": "address"
        }
      ],
      "name": "OwnershipTransferred",
      "type": "event"
    },
    {
      "anonymous": false,
      "inputs": [
        {
          "indexed": false,
          "internalType": "address",
          "name": "account",
          "type": "address"
        }
      ],
      "name": "Paused",
      "type": "event"
    },
    {
      "anonymous": false,
      "inputs": [
        {
          "indexed": true,
          "internalType": "address",
          "name": "from",
          "type": "address"
        },
        {
          "indexed": true,
          "internalType": "address",
          "name": "to",
          "type": "address"
        },
        {
          "indexed": false,
          "internalType": "uint256",
          "name": "value",
          "type": "uint256"
        }
      ],
      "name": "Transfer",
      "type": "event"
    },
    {
      "anonymous": false,
      "inputs": [
        {
          "indexed": false,
          "internalType": "address",
          "name": "account",
          "type": "address"
        }
      ],
      "name": "Unpaused",
      "type": "event"
    },
    {
      "inputs": [],
      "name": "DOMAIN_SEPARATOR",
      "outputs": [
        {
          "internalType": "bytes32",
          "name": "",
          "type": "bytes32"
        }
      ],
      "stateMutability": "view",
      "type": "function"
    },
    {
      "inputs": [
        {
          "internalType": "address",
          "name": "owner",
          "type": "address"
        },
        {
          "internalType": "address",
          "name": "spender",
          "type": "address"
        }
      ],
      "name": "allowance",
      "outputs": [
        {
          "internalType": "uint256",
          "name": "",
          "type": "uint256"
        }
      ],
      "stateMutability": "view",
      "type": "function"
    },
    {
      "inputs": [
        {
          "internalType": "address",
          "name": "spender",
          "type": "address"
        },
        {
          "internalType": "uint256",
          "name": "value",
          "type": "uint256"
        }
      ],
      "name": "approve",
      "outputs": [
        {
          "internalType": "bool",
          "name": "",
          "type": "bool"
        }
      ],
      "stateMutability": "nonpayable",
      "type": "function"
    },
    {
      "inputs": [
        {
          "internalType": "address",
          "name": "account",
          "type": "address"
        }
      ],
      "name": "balanceOf",
      "outputs": [
        {
          "internalType": "uint256",
          "name": "",
          "type": "uint256"
        }
      ],
      "stateMutability": "view",
      "type": "function"
    },
    {
      "inputs": [],
      "name": "decimals",
      "outputs": [
        {
          "internalType": "uint8",
          "name": "",
          "type": "uint8"
        }
      ],
      "stateMutability": "view",
      "type": "function"
    },
    {
      "inputs": [],
      "name": "eip712Domain",
      "outputs": [
        {
          "internalType": "bytes1",
          "name": "fields",
          "type": "bytes1"
        },
        {
          "internalType": "string",
          "name": "name",
          "type": "string"
        },
        {
          "internalType": "string",
          "name": "version",
          "type": "string"
        },
        {
          "internalType": "uint256",
          "name": "chainId",
          "type": "uint256"
        },
        {
          "internalType": "address",
          "name": "verifyingContract",
          "type": "address"
        },
        {
          "internalType": "bytes32",
          "name": "salt",
          "type": "bytes32"
        },
        {
          "internalType": "uint256[]",
          "name": "extensions",
          "type": "uint256[]"
        }
      ],
      "stateMutability": "view",
      "type": "function"
    },
    {
      "inputs": [
        {
          "internalType": "address",
          "name": "to",
          "type": "address"
        },
        {
          "internalType": "uint256",
          "name": "amount",
          "type": "uint256"
        }
      ],
      "name": "mint",
      "outputs": [],
      "stateMutability": "nonpayable",
      "type": "function"
    },
    {
      "inputs": [],
      "name": "name",
      "outputs": [
        {
          "internalType": "string",
          "name": "",
          "type": "string"
        }
      ],
      "stateMutability": "view",
      "type": "function"
    },
    {
      "inputs": [
        {
          "internalType": "address",
          "name": "owner",
          "type": "address"
        }
      ],
      "name": "nonces",
      "outputs": [
        {
          "internalType": "uint256",
          "name": "",
          "type": "uint256"
        }
      ],
      "stateMutability": "view",
      "type": "function"
    },
    {
      "inputs": [],
      "name": "owner",
      "outputs": [
        {
          "internalType": "address",
          "name": "",
          "type": "address"
        }
      ],
      "stateMutability": "view",
      "type": "function"
    },
    {
      "inputs": [],
      "name": "pause",
      "outputs": [],
      "stateMutability": "nonpayable",
      "type": "function"
    },
    {
      "inputs": [],
      "name": "paused",
      "outputs": [
        {
          "internalType": "bool",
          "name": "",
          "type": "bool"
        }
      ],
      "stateMutability": "view",
      "type": "function"
    },
    {
      "inputs": [
        {
          "internalType": "address",
          "name": "owner",
          "type": "address"
        },
        {
          "internalType": "address",
          "name": "spender",
          "type": "address"
        },
        {
          "internalType": "uint256",
          "name": "value",
          "type": "uint256"
        },
        {
          "internalType": "uint256",
          "name": "deadline",
          "type": "uint256"
        },
        {
          "internalType": "uint8",
          "name": "v",
          "type": "uint8"
        },
        {
          "internalType": "bytes32",
          "name": "r",
          "type": "bytes32"
        },
        {
          "internalType": "bytes32",
          "name": "s",
          "type": "bytes32"
        }
      ],
      "name": "permit",
      "outputs": [],
      "stateMutability": "nonpayable",
      "type": "function"
    },
    {
      "inputs": [],
      "name": "renounceOwnership",
      "outputs": [],
      "stateMutability": "nonpayable",
      "type": "function"
    },
    {
      "inputs": [],
      "name": "symbol",
      "outputs": [
        {
          "internalType": "string",
          "name": "",
          "type": "string"
        }
      ],
      "stateMutability": "view",
      "type": "function"
    },
    {
      "inputs": [],
      "name": "totalSupply",
      "outputs": [
        {
          "internalType": "uint256",
          "name": "",
          "type": "uint256"
        }
      ],
      "stateMutability": "view",
      "type": "function"
    },
    {
      "inputs": [
        {
          "internalType": "address",
          "name": "to",
          "type": "address"
        },
        {
          "internalType": "uint256",
          "name": "value",
          "type": "uint256"
        }
      ],
      "name": "transfer",
      "outputs": [
        {
          "internalType": "bool",
          "name": "",
          "type": "bool"
        }
      ],
      "stateMutability": "nonpayable",
      "type": "function"
    },
    {
      "inputs": [
        {
          "internalType": "address",
          "name": "from",
          "type": "address"
        },
        {
          "internalType": "address",
          "name": "to",
          "type": "address"
        },
        {
          "internalType": "uint256",
          "name": "value",
          "type": "uint256"
        }
      ],
      "name": "transferFrom",
      "outputs": [
        {
          "internalType": "bool",
          "name": "",
          "type": "bool"
        }
      ],
      "stateMutability": "nonpayable",
      "type": "function"
    },
    {
      "inputs": [
        {
          "internalType": "address",
          "name": "newOwner",
          "type": "address"
        }
      ],
      "name": "transferOwnership",
      "outputs": [],
      "stateMutability": "nonpayable",
      "type": "function"
    },
    {
      "inputs": [],
      "name": "unpause",
      "outputs": [],
      "stateMutability": "nonpayable",
      "type": "function"
    }
  ],
  "bytecode": "0x6101606040523480156200001257600080fd5b5060405162002c4138038062002c418339818101604052810190620000389190620004ee565b6040518060400160405280600c81526020017f707467477265656e726f636b0000000000000000000000000000000000000000815250806040518060400160405280600181526020017f3100000000000000000000000000000000000000000000000000000000000000815250836040518060400160405280600c81526020017f707467477265656e726f636b00000000000000000000000000000000000000008152506040518060400160405280600581526020017f505447474500000000000000000000000000000000000000000000000000000081525081600390816200012391906200079a565b5080600490816200013591906200079a565b5050506000600560006101000a81548160ff021916908315150217905550600073ffffffffffffffffffffffffffffffffffffffff168173ffffffffffffffffffffffffffffffffffffffff1603620001c85760006040517f1e4fbdf7000000000000000000000000000000000000000000000000000000008152600401620001bf919062000892565b60405180910390fd5b620001d9816200029260201b60201c565b50620001f06006836200035860201b90919060201c565b61012081815250506200020e6007826200035860201b90919060201c565b6101408181525050818051906020012060e08181525050808051906020012061010081815250504660a081815250506200024d620003b060201b60201c565b608081815250503073ffffffffffffffffffffffffffffffffffffffff1660c08173ffffffffffffffffffffffffffffffffffffffff16815250505050505062000a8d565b6000600560019054906101000a900473ffffffffffffffffffffffffffffffffffffffff16905081600560016101000a81548173ffffffffffffffffffffffffffffffffffffffff021916908373ffffffffffffffffffffffffffffffffffffffff1602179055508173ffffffffffffffffffffffffffffffffffffffff168173ffffffffffffffffffffffffffffffffffffffff167f8be0079c531659141344cd1fd0a4f28419497f9722a3daafe3b4186f6b6457e060405160405180910390a35050565b60006020835110156200037e5762000376836200040d60201b60201c565b9050620003aa565b8262000390836200047a60201b60201c565b6000019081620003a191906200079a565b5060ff60001b90505b92915050565b60007f8b73c3c69bb8fe3d512ecc4cf759cc79239f7b179b0ffacaa9a75d522b39400f60e051610100514630604051602001620003f2959493929190620008db565b60405160208183030381529060405280519060200120905090565b600080829050601f815111156200045d57826040517f305a27a9000000000000000000000000000000000000000000000000000000008152600401620004549190620009c7565b60405180910390fd5b8051816200046b9062000a1d565b60001c1760001b915050919050565b6000819050919050565b600080fd5b600073ffffffffffffffffffffffffffffffffffffffff82169050919050565b6000620004b68262000489565b9050919050565b620004c881620004a9565b8114620004d457600080fd5b50565b600081519050620004e881620004bd565b92915050565b60006020828403121562000507576200050662000484565b5b60006200051784828501620004d7565b91505092915050565b600081519050919050565b7f4e487b7100000000000000000000000000000000000000000000000000000000600052604160045260246000fd5b7f4e487b7100000000000000000000000000000000000000000000000000000000600052602260045260246000fd5b60006002820490506001821680620005a257607f821691505b602082108103620005b857620005b76200055a565b5b50919050565b60008190508160005260206000209050919050565b60006020601f8301049050919050565b600082821b905092915050565b600060088302620006227fffffffffffffffffffffffffffffffffffffffffffffffffffffffffffffffff82620005e3565b6200062e8683620005e3565b95508019841693508086168417925050509392505050565b6000819050919050565b6000819050919050565b60006200067b620006756200066f8462000646565b62000650565b62000646565b9050919050565b6000819050919050565b62000697836200065a565b620006af620006a68262000682565b848454620005f0565b825550505050565b600090565b620006c6620006b7565b620006d38184846200068c565b505050565b5b81811015620006fb57620006ef600082620006bc565b600181019050620006d9565b5050565b601f8211156200074a576200071481620005be565b6200071f84620005d3565b810160208510156200072f578190505b620007476200073e85620005d3565b830182620006d8565b50505b505050565b600082821c905092915050565b60006200076f600019846008026200074f565b1980831691505092915050565b60006200078a83836200075c565b9150826002028217905092915050565b620007a58262000520565b67ffffffffffffffff811115620007c157620007c06200052b565b5b620007cd825462000589565b620007da828285620006ff565b600060209050601f831160018114620008125760008415620007fd578287015190505b6200080985826200077c565b86555062000879565b601f1984166200082286620005be565b60005b828110156200084c5784890151825560018201915060208501945060208101905062000825565b868310156200086c578489015162000868601f8916826200075c565b8355505b6001600288020188555050505b505050505050565b6200088c81620004a9565b82525050565b6000602082019050620008a9600083018462000881565b92915050565b6000819050919050565b620008c481620008af565b82525050565b620008d58162000646565b82525050565b600060a082019050620008f26000830188620008b9565b620009016020830187620008b9565b620009106040830186620008b9565b6200091f6060830185620008ca565b6200092e608083018462000881565b9695505050505050565b600082825260208201905092915050565b60005b83811015620009695780820151818401526020810190506200094c565b60008484015250505050565b6000601f19601f8301169050919050565b6000620009938262000520565b6200099f818562000938565b9350620009b181856020860162000949565b620009bc8162000975565b840191505092915050565b60006020820190508181036000830152620009e3818462000986565b905092915050565b600081519050919050565b6000819050602082019050919050565b600062000a148251620008af565b80915050919050565b600062000a2a82620009eb565b8262000a3684620009f6565b905062000a438162000a06565b9250602082101562000a865762000a817fffffffffffffffffffffffffffffffffffffffffffffffffffffffffffffffff83602003600802620005e3565b831692505b5050919050565b60805160a05160c05160e05161010051610120516101405161215962000ae86000396000610ed701526000610e9c015260006111d7015260006111b601526000610b0201526000610b5801526000610b8101526121596000f3fe608060405234801561001057600080fd5b506004361061012c5760003560e01c8063715018a6116100ad57806395d89b411161007157806395d89b4114610303578063a9059cbb14610321578063d505accf14610351578063dd62ed3e1461036d578063f2fde38b1461039d5761012c565b8063715018a61461027d5780637ecebe00146102875780638456cb59146102b757806384b0196e146102c15780638da5cb5b146102e55761012c565b80633644e515116100f45780633644e515146101eb5780633f4ba83a1461020957806340c10f19146102135780635c975abb1461022f57806370a082311461024d5761012c565b806306fdde0314610131578063095ea7b31461014f57806318160ddd1461017f57806323b872dd1461019d578063313ce567146101cd575b600080fd5b6101396103b9565b6040516101469190611982565b60405180910390f35b61016960048036038101906101649190611a3d565b61044b565b6040516101769190611a98565b60405180910390f35b61018761046e565b6040516101949190611ac2565b60405180910390f35b6101b760048036038101906101b29190611add565b610478565b6040516101c49190611a98565b60405180910390f35b6101d56104a7565b6040516101e29190611b4c565b60405180910390f35b6101f36104b0565b6040516102009190611b80565b60405180910390f35b6102116104bf565b005b61022d60048036038101906102289190611a3d565b6104d1565b005b6102376104e7565b6040516102449190611a98565b60405180910390f35b61026760048036038101906102629190611b9b565b6104fe565b6040516102749190611ac2565b60405180910390f35b610285610546565b005b6102a1600480360381019061029c9190611b9b565b61055a565b6040516102ae9190611ac2565b60405180910390f35b6102bf61056c565b005b6102c961057e565b6040516102dc9796959493929190611cd0565b60405180910390f35b6102ed610628565b6040516102fa9190611d54565b60405180910390f35b61030b610652565b6040516103189190611982565b60405180910390f35b61033b60048036038101906103369190611a3d565b6106e4565b6040516103489190611a98565b60405180910390f35b61036b60048036038101906103669190611dc7565b610707565b005b61038760048036038101906103829190611e69565b61084f565b6040516103949190611ac2565b60405180910390f35b6103b760048036038101906103b29190611b9b565b6108d6565b005b6060600380546103c890611ed8565b80601f01602080910402602001604051908101604052809291908181526020018280546103f490611ed8565b80156104415780601f1061041657610100808354040283529160200191610441565b820191906000526020600020905b81548152906001019060200180831161042457829003601f168201915b5050505050905090565b60008061045661095c565b9050610463818585610964565b600191505092915050565b6000600254905090565b60008061048361095c565b9050610490858285610976565b61049b858585610a0a565b60019150509392505050565b60006012905090565b60006104ba610afe565b905090565b6104c7610bb5565b6104cf610c3c565b565b6104d9610bb5565b6104e38282610c9f565b5050565b6000600560009054906101000a900460ff16905090565b60008060008373ffffffffffffffffffffffffffffffffffffffff1673ffffffffffffffffffffffffffffffffffffffff168152602001908152602001600020549050919050565b61054e610bb5565b6105586000610d21565b565b600061056582610de7565b9050919050565b610574610bb5565b61057c610e30565b565b600060608060008060006060610592610e93565b61059a610ece565b46306000801b600067ffffffffffffffff8111156105bb576105ba611f09565b5b6040519080825280602002602001820160405280156105e95781602001602082028036833780820191505090505b507f0f00000000000000000000000000000000000000000000000000000000000000959493929190965096509650965096509650965090919293949596565b6000600560019054906101000a900473ffffffffffffffffffffffffffffffffffffffff16905090565b60606004805461066190611ed8565b80601f016020809104026020016040519081016040528092919081815260200182805461068d90611ed8565b80156106da5780601f106106af576101008083540402835291602001916106da565b820191906000526020600020905b8154815290600101906020018083116106bd57829003601f168201915b5050505050905090565b6000806106ef61095c565b90506106fc818585610a0a565b600191505092915050565b8342111561074c57836040517f627913020000000000000000000000000000000000000000000000000000000081526004016107439190611ac2565b60405180910390fd5b60007f6e71edae12b1b97f4d1f60370fef10105fa2faae0126114a169c64845d6126c988888861077b8c610f09565b8960405160200161079196959493929190611f38565b60405160208183030381529060405280519060200120905060006107b482610f60565b905060006107c482878787610f7a565b90508973ffffffffffffffffffffffffffffffffffffffff168173ffffffffffffffffffffffffffffffffffffffff161461083857808a6040517f4b800e4600000000000000000000000000000000000000000000000000000000815260040161082f929190611f99565b60405180910390fd5b6108438a8a8a610964565b50505050505050505050565b6000600160008473ffffffffffffffffffffffffffffffffffffffff1673ffffffffffffffffffffffffffffffffffffffff16815260200190815260200160002060008373ffffffffffffffffffffffffffffffffffffffff1673ffffffffffffffffffffffffffffffffffffffff16815260200190815260200160002054905092915050565b6108de610bb5565b600073ffffffffffffffffffffffffffffffffffffffff168173ffffffffffffffffffffffffffffffffffffffff16036109505760006040517f1e4fbdf70000000000000000000000000000000000000000000000000000000081526004016109479190611d54565b60405180910390fd5b61095981610d21565b50565b600033905090565b6109718383836001610faa565b505050565b6000610982848461084f565b90507fffffffffffffffffffffffffffffffffffffffffffffffffffffffffffffffff8114610a0457818110156109f4578281836040517ffb8f41b20000000000000000000000000000000000000000000000000000000081526004016109eb93929190611fc2565b60405180910390fd5b610a0384848484036000610faa565b5b50505050565b600073ffffffffffffffffffffffffffffffffffffffff168373ffffffffffffffffffffffffffffffffffffffff1603610a7c5760006040517f96c6fd1e000000000000000000000000000000000000000000000000000000008152600401610a739190611d54565b60405180910390fd5b600073ffffffffffffffffffffffffffffffffffffffff168273ffffffffffffffffffffffffffffffffffffffff1603610aee5760006040517fec442f05000000000000000000000000000000000000000000000000000000008152600401610ae59190611d54565b60405180910390fd5b610af9838383611181565b505050565b60007f000000000000000000000000000000000000000000000000000000000000000073ffffffffffffffffffffffffffffffffffffffff163073ffffffffffffffffffffffffffffffffffffffff16148015610b7a57507f000000000000000000000000000000000000000000000000000000000000000046145b15610ba7577f00000000000000000000000000000000000000000000000000000000000000009050610bb2565b610baf611191565b90505b90565b610bbd61095c565b73ffffffffffffffffffffffffffffffffffffffff16610bdb610628565b73ffffffffffffffffffffffffffffffffffffffff1614610c3a57610bfe61095c565b6040517f118cdaa7000000000000000000000000000000000000000000000000000000008152600401610c319190611d54565b60405180910390fd5b565b610c44611227565b6000600560006101000a81548160ff0219169083151502179055507f5db9ee0a495bf2e6ff9c91a7834c1ba4fdd244a5e8aa4e537bd38aeae4b073aa610c8861095c565b604051610c959190611d54565b60405180910390a1565b600073ffffffffffffffffffffffffffffffffffffffff168273ffffffffffffffffffffffffffffffffffffffff1603610d115760006040517fec442f05000000000000000000000000000000000000000000000000000000008152600401610d089190611d54565b60405180910390fd5b610d1d60008383611181565b5050565b6000600560019054906101000a900473ffffffffffffffffffffffffffffffffffffffff16905081600560016101000a81548173ffffffffffffffffffffffffffffffffffffffff021916908373ffffffffffffffffffffffffffffffffffffffff1602179055508173ffffffffffffffffffffffffffffffffffffffff168173ffffffffffffffffffffffffffffffffffffffff167f8be0079c531659141344cd1fd0a4f28419497f9722a3daafe3b4186f6b6457e060405160405180910390a35050565b6000600860008373ffffffffffffffffffffffffffffffffffffffff1673ffffffffffffffffffffffffffffffffffffffff168152602001908152602001600020549050919050565b610e38611267565b6001600560006101000a81548160ff0219169083151502179055507f62e78cea01bee320cd4e420270b5ea74000d11b0c9f74754ebdbfc544b05a258610e7c61095c565b604051610e899190611d54565b60405180910390a1565b6060610ec960067f00000000000000000000000000000000000000000000000000000000000000006112a890919063ffffffff16565b905090565b6060610f0460077f00000000000000000000000000000000000000000000000000000000000000006112a890919063ffffffff16565b905090565b6000600860008373ffffffffffffffffffffffffffffffffffffffff1673ffffffffffffffffffffffffffffffffffffffff1681526020019081526020016000206000815480929190600101919050559050919050565b6000610f73610f6d610afe565b83611358565b9050919050565b600080600080610f8c88888888611399565b925092509250610f9c828261148d565b829350505050949350505050565b600073ffffffffffffffffffffffffffffffffffffffff168473ffffffffffffffffffffffffffffffffffffffff160361101c5760006040517fe602df050000000000000000000000000000000000000000000000000000000081526004016110139190611d54565b60405180910390fd5b600073ffffffffffffffffffffffffffffffffffffffff168373ffffffffffffffffffffffffffffffffffffffff160361108e5760006040517f94280d620000000000000000000000000000000000000000000000000000000081526004016110859190611d54565b60405180910390fd5b81600160008673ffffffffffffffffffffffffffffffffffffffff1673ffffffffffffffffffffffffffffffffffffffff16815260200190815260200160002060008573ffffffffffffffffffffffffffffffffffffffff1673ffffffffffffffffffffffffffffffffffffffff16815260200190815260200160002081905550801561117b578273ffffffffffffffffffffffffffffffffffffffff168473ffffffffffffffffffffffffffffffffffffffff167f8c5be1e5ebec7d5bd14f71427d1e84f3dd0314c0f7b2291e5b200ac8c7c3b925846040516111729190611ac2565b60405180910390a35b50505050565b61118c8383836115f1565b505050565b60007f8b73c3c69bb8fe3d512ecc4cf759cc79239f7b179b0ffacaa9a75d522b39400f7f00000000000000000000000000000000000000000000000000000000000000007f0000000000000000000000000000000000000000000000000000000000000000463060405160200161120c959493929190611ff9565b60405160208183030381529060405280519060200120905090565b61122f6104e7565b611265576040517f8dfc202b00000000000000000000000000000000000000000000000000000000815260040160405180910390fd5b565b61126f6104e7565b156112a6576040517fd93c066500000000000000000000000000000000000000000000000000000000815260040160405180910390fd5b565b606060ff60001b83146112c5576112be83611609565b9050611352565b8180546112d190611ed8565b80601f01602080910402602001604051908101604052809291908181526020018280546112fd90611ed8565b801561134a5780601f1061131f5761010080835404028352916020019161134a565b820191906000526020600020905b81548152906001019060200180831161132d57829003601f168201915b505050505090505b92915050565b60006040517f190100000000000000000000000000000000000000000000000000000000000081528360028201528260228201526042812091505092915050565b60008060007f7fffffffffffffffffffffffffffffff5d576e7357a4501ddfe92f46681b20a08460001c11156113d9576000600385925092509250611483565b6000600188888888604051600081526020016040526040516113fe949392919061204c565b6020604051602081039080840390855afa158015611420573d6000803e3d6000fd5b505050602060405103519050600073ffffffffffffffffffffffffffffffffffffffff168173ffffffffffffffffffffffffffffffffffffffff160361147457600060016000801b93509350935050611483565b8060008060001b935093509350505b9450945094915050565b600060038111156114a1576114a0612091565b5b8260038111156114b4576114b3612091565b5b03156115ed57600160038111156114ce576114cd612091565b5b8260038111156114e1576114e0612091565b5b03611518576040517ff645eedf00000000000000000000000000000000000000000000000000000000815260040160405180910390fd5b6002600381111561152c5761152b612091565b5b82600381111561153f5761153e612091565b5b03611584578060001c6040517ffce698f700000000000000000000000000000000000000000000000000000000815260040161157b9190611ac2565b60405180910390fd5b60038081111561159757611596612091565b5b8260038111156115aa576115a9612091565b5b036115ec57806040517fd78bce0c0000000000000000000000000000000000000000000000000000000081526004016115e39190611b80565b60405180910390fd5b5b5050565b6115f9611267565b61160483838361167d565b505050565b60606000611616836118a2565b90506000602067ffffffffffffffff81111561163557611634611f09565b5b6040519080825280601f01601f1916602001820160405280156116675781602001600182028036833780820191505090505b5090508181528360208201528092505050919050565b600073ffffffffffffffffffffffffffffffffffffffff168373ffffffffffffffffffffffffffffffffffffffff16036116cf5780600260008282546116c391906120ef565b925050819055506117a2565b60008060008573ffffffffffffffffffffffffffffffffffffffff1673ffffffffffffffffffffffffffffffffffffffff1681526020019081526020016000205490508181101561175b578381836040517fe450d38c00000000000000000000000000000000000000000000000000000000815260040161175293929190611fc2565b60405180910390fd5b8181036000808673ffffffffffffffffffffffffffffffffffffffff1673ffffffffffffffffffffffffffffffffffffffff16815260200190815260200160002081905550505b600073ffffffffffffffffffffffffffffffffffffffff168273ffffffffffffffffffffffffffffffffffffffff16036117eb5780600260008282540392505081905550611838565b806000808473ffffffffffffffffffffffffffffffffffffffff1673ffffffffffffffffffffffffffffffffffffffff168152602001908152602001600020600082825401925050819055505b8173ffffffffffffffffffffffffffffffffffffffff168373ffffffffffffffffffffffffffffffffffffffff167fddf252ad1be2c89b69c2b068fc378daa952ba7f163c4a11628f55a4df523b3ef836040516118959190611ac2565b60405180910390a3505050565b60008060ff8360001c169050601f8111156118e9576040517fb3512b0c00000000000000000000000000000000000000000000000000000000815260040160405180910390fd5b80915050919050565b600081519050919050565b600082825260208201905092915050565b60005b8381101561192c578082015181840152602081019050611911565b60008484015250505050565b6000601f19601f8301169050919050565b6000611954826118f2565b61195e81856118fd565b935061196e81856020860161190e565b61197781611938565b840191505092915050565b6000602082019050818103600083015261199c8184611949565b905092915050565b600080fd5b600073ffffffffffffffffffffffffffffffffffffffff82169050919050565b60006119d4826119a9565b9050919050565b6119e4816119c9565b81146119ef57600080fd5b50565b600081359050611a01816119db565b92915050565b6000819050919050565b611a1a81611a07565b8114611a2557600080fd5b50565b600081359050611a3781611a11565b92915050565b60008060408385031215611a5457611a536119a4565b5b6000611a62858286016119f2565b9250506020611a7385828601611a28565b9150509250929050565b60008115159050919050565b611a9281611a7d565b82525050565b6000602082019050611aad6000830184611a89565b92915050565b611abc81611a07565b82525050565b6000602082019050611ad76000830184611ab3565b92915050565b600080600060608486031215611af657611af56119a4565b5b6000611b04868287016119f2565b9350506020611b15868287016119f2565b9250506040611b2686828701611a28565b9150509250925092565b600060ff82169050919050565b611b4681611b30565b82525050565b6000602082019050611b616000830184611b3d565b92915050565b6000819050919050565b611b7a81611b67565b82525050565b6000602082019050611b956000830184611b71565b92915050565b600060208284031215611bb157611bb06119a4565b5b6000611bbf848285016119f2565b91505092915050565b60007fff0000000000000000000000000000000000000000000000000000000000000082169050919050565b611bfd81611bc8565b82525050565b611c0c816119c9565b82525050565b600081519050919050565b600082825260208201905092915050565b6000819050602082019050919050565b611c4781611a07565b82525050565b6000611c598383611c3e565b60208301905092915050565b6000602082019050919050565b6000611c7d82611c12565b611c878185611c1d565b9350611c9283611c2e565b8060005b83811015611cc3578151611caa8882611c4d565b9750611cb583611c65565b925050600181019050611c96565b5085935050505092915050565b600060e082019050611ce5600083018a611bf4565b8181036020830152611cf78189611949565b90508181036040830152611d0b8188611949565b9050611d1a6060830187611ab3565b611d276080830186611c03565b611d3460a0830185611b71565b81810360c0830152611d468184611c72565b905098975050505050505050565b6000602082019050611d696000830184611c03565b92915050565b611d7881611b30565b8114611d8357600080fd5b50565b600081359050611d9581611d6f565b92915050565b611da481611b67565b8114611daf57600080fd5b50565b600081359050611dc181611d9b565b92915050565b600080600080600080600060e0888a031215611de657611de56119a4565b5b6000611df48a828b016119f2565b9750506020611e058a828b016119f2565b9650506040611e168a828b01611a28565b9550506060611e278a828b01611a28565b9450506080611e388a828b01611d86565b93505060a0611e498a828b01611db2565b92505060c0611e5a8a828b01611db2565b91505092959891949750929550565b60008060408385031215611e8057611e7f6119a4565b5b6000611e8e858286016119f2565b9250506020611e9f858286016119f2565b9150509250929050565b7f4e487b7100000000000000000000000000000000000000000000000000000000600052602260045260246000fd5b60006002820490506001821680611ef057607f821691505b602082108103611f0357611f02611ea9565b5b50919050565b7f4e487b7100000000000000000000000000000000000000000000000000000000600052604160045260246000fd5b600060c082019050611f4d6000830189611b71565b611f5a6020830188611c03565b611f676040830187611c03565b611f746060830186611ab3565b611f816080830185611ab3565b611f8e60a0830184611ab3565b979650505050505050565b6000604082019050611fae6000830185611c03565b611fbb6020830184611c03565b9392505050565b6000606082019050611fd76000830186611c03565b611fe46020830185611ab3565b611ff16040830184611ab3565b949350505050565b600060a08201905061200e6000830188611b71565b61201b6020830187611b71565b6120286040830186611b71565b6120356060830185611ab3565b6120426080830184611c03565b9695505050505050565b60006080820190506120616000830187611b71565b61206e6020830186611b3d565b61207b6040830185611b71565b6120886060830184611b71565b95945050505050565b7f4e487b7100000000000000000000000000000000000000000000000000000000600052602160045260246000fd5b7f4e487b7100000000000000000000000000000000000000000000000000000000600052601160045260246000fd5b60006120fa82611a07565b915061210583611a07565b925082820190508082111561211d5761211c6120c0565b5b9291505056fea26469706673582212204a67251af520d557292ab316b72ed18aae482fc092b5edbc78a0aee19ada28b064736f6c63430008140033",
  "linkReferences": {},
  "deployedLinkReferences": {}
}